:0300000002091FD3
:0C091F00787FE4F6D8FD75810B0208001B
:1008C8004C59434120534F465400202020202020DB
:0B08D8002020202020202020202000D5
:06083B00D2937F057E0050
:10084100E4FDFCC3ED9FEE6480F8EC6480985015E4
:10085100E4FBFA0BBB00010AEB64734A70F50DBDB2
:0508610000010C80DE27
:01086600226F
:10088C00A907E954F0F590C29212083BC293E9C44F
:0E089C0054F0F590C292D293120841C29322FA
:1008AA00A907E954F0F590D29212083BC293E9C421
:0E08BA0054F0F590D292D293120841C29322CC
:100867008B098A0A890BAB09AA0AA90B1208E3604C
:1008770013050BE50B7002050A14F91208E3FF12C2
:0508870008AA80E22236
:1008FC007F0212088C7F2812088C7F0612088C7FCE
:04090C000C02088C45
:0F091000758920759850758DFD758BFDD28E22DF
:08092B003098FDC298AF99223B
:100800001208FC1209107F8012088C7BFF7A08798D
:10081000C81208677FC012088C12092B8F081208B3
:10082000AAE508B40DF37FC012088C7BFF7A087923
:0B083000D21208677FC012088C80DE27
:1008E300BB010689828A83E0225002E722BBFE0213
:0908F300E32289828A83E4932246
:00000001FF
